{
  "contractName": "Prescription",
  "abi": [
    {
      "constant": true,
      "inputs": [
        {
          "internalType": "uint256",
          "name": "",
          "type": "uint256"
        }
      ],
      "name": "drugList",
      "outputs": [
        {
          "internalType": "string",
          "name": "name",
          "type": "string"
        },
        {
          "internalType": "uint256",
          "name": "strength",
          "type": "uint256"
        },
        {
          "internalType": "uint256",
          "name": "totalQuantity",
          "type": "uint256"
        },
        {
          "internalType": "uint256",
          "name": "numRefills",
          "type": "uint256"
        },
        {
          "internalType": "uint256",
          "name": "dosage",
          "type": "uint256"
        },
        {
          "internalType": "string",
          "name": "notes",
          "type": "string"
        }
      ],
      "payable": false,
      "stateMutability": "view",
      "type": "function"
    },
    {
      "constant": false,
      "inputs": [
        {
          "internalType": "string",
          "name": "tempName",
          "type": "string"
        },
        {
          "internalType": "uint256",
          "name": "tempStrength",
          "type": "uint256"
        },
        {
          "internalType": "uint256",
          "name": "tempQuantity",
          "type": "uint256"
        },
        {
          "internalType": "uint256",
          "name": "tempRefills",
          "type": "uint256"
        },
        {
          "internalType": "uint256",
          "name": "tempDosage",
          "type": "uint256"
        }
      ],
      "name": "addDrug",
      "outputs": [],
      "payable": false,
      "stateMutability": "nonpayable",
      "type": "function"
    },
    {
      "constant": false,
      "inputs": [
        {
          "internalType": "string",
          "name": "name",
          "type": "string"
        },
        {
          "internalType": "string",
          "name": "_newNotes",
          "type": "string"
        }
      ],
      "name": "addNote",
      "outputs": [],
      "payable": false,
      "stateMutability": "nonpayable",
      "type": "function"
    }
  ],
  "bytecode": "0x608060405234801561001057600080fd5b50610916806100206000396000f3fe608060405234801561001057600080fd5b50600436106100415760003560e01c80632fdccd0b14610046578063a5d20ee714610062578063b241833914610097575b600080fd5b610060600480360361005b919081019061060f565b6100b3565b005b61007c6004803603610077919081019061070a565b6101d1565b60405161008e9695949392919061077b565b60405180910390f35b6100b160048036036100ac919081019061067b565b61034a565b005b60008090505b6000805490508110156101cc57610186600082815481106100d657fe5b90600052602060002090600602016000018054600181600116156101000203166002900480601f01602080910402602001604051908101604052809291908181526020018280546001816001161561010002031660029004801561017b5780601f106101505761010080835404028352916020019161017b565b820191906000526020600020905b81548152906001019060200180831161015e57829003601f168201915b505050505084610445565b156101bf57816000828154811061019957fe5b906000526020600020906006020160050190805190602001906101bd929190610481565b505b80806001019150506100b9565b505050565b600081815481106101de57fe5b9060005260206000209060060201600091509050806000018054600181600116156101000203166002900480601f01602080910402602001604051908101604052809291908181526020018280546001816001161561010002031660029004801561028a5780601f1061025f5761010080835404028352916020019161028a565b820191906000526020600020905b81548152906001019060200180831161026d57829003601f168201915b505050505090806001015490806002015490806003015490806004015490806005018054600181600116156101000203166002900480601f0160208091040260200160405190810160405280929190818152602001828054600181600116156101000203166002900480156103405780601f1061031557610100808354040283529160200191610340565b820191906000526020600020905b81548152906001019060200180831161032357829003601f168201915b5050505050905086565b60006040518060c001604052808781526020018681526020018581526020018481526020018381526020016040518060400160405280600481526020017f6e6f6e65000000000000000000000000000000000000000000000000000000008152508152509080600181540180825580915050906001820390600052602060002090600602016000909192909190915060008201518160000190805190602001906103f5929190610501565b506020820151816001015560408201518160020155606082015181600301556080820151816004015560a082015181600501908051906020019061043a929190610501565b505050505050505050565b60006060839050606083905080518251146104655760009250505061047b565b8080519060200120828051906020012014925050505b92915050565b828054600181600116156101000203166002900490600052602060002090601f016020900481019282601f106104c257805160ff19168380011785556104f0565b828001600101855582156104f0579182015b828111156104ef5782518255916020019190600101906104d4565b5b5090506104fd9190610581565b5090565b828054600181600116156101000203166002900490600052602060002090601f016020900481019282601f1061054257805160ff1916838001178555610570565b82800160010185558215610570579182015b8281111561056f578251825591602001919060010190610554565b5b50905061057d9190610581565b5090565b6105a391905b8082111561059f576000816000905550600101610587565b5090565b90565b600082601f8301126105b757600080fd5b81356105ca6105c582610817565b6107ea565b915080825260208301602083018583830111156105e657600080fd5b6105f1838284610869565b50505092915050565b600081359050610609816108bc565b92915050565b6000806040838503121561062257600080fd5b600083013567ffffffffffffffff81111561063c57600080fd5b610648858286016105a6565b925050602083013567ffffffffffffffff81111561066557600080fd5b610671858286016105a6565b9150509250929050565b600080600080600060a0868803121561069357600080fd5b600086013567ffffffffffffffff8111156106ad57600080fd5b6106b9888289016105a6565b95505060206106ca888289016105fa565b94505060406106db888289016105fa565b93505060606106ec888289016105fa565b92505060806106fd888289016105fa565b9150509295509295909350565b60006020828403121561071c57600080fd5b600061072a848285016105fa565b91505092915050565b600061073e82610843565b610748818561084e565b9350610758818560208601610878565b610761816108ab565b840191505092915050565b6107758161085f565b82525050565b600060c08201905081810360008301526107958189610733565b90506107a4602083018861076c565b6107b1604083018761076c565b6107be606083018661076c565b6107cb608083018561076c565b81810360a08301526107dd8184610733565b9050979650505050505050565b6000604051905081810181811067ffffffffffffffff8211171561080d57600080fd5b8060405250919050565b600067ffffffffffffffff82111561082e57600080fd5b601f19601f8301169050602081019050919050565b600081519050919050565b600082825260208201905092915050565b6000819050919050565b82818337600083830152505050565b60005b8381101561089657808201518184015260208101905061087b565b838111156108a5576000848401525b50505050565b6000601f19601f8301169050919050565b6108c58161085f565b81146108d057600080fd5b5056fea365627a7a723158202375a5ea0fe4bbf40fd926d1f579e1601d3c4542efd29d1c335f830a54bca98e6c6578706572696d656e74616cf564736f6c63430005100040",
  "source": "pragma solidity >=0.4.21 <0.7.0;\r\npragma experimental ABIEncoderV2;\r\n\r\n/*\r\n    SPDX-License-Identifier: UNLICENSED\r\n    Assumptions:\r\n*/\r\n\r\ncontract Prescription {\r\n    drug[] public drugList;\r\n\r\n    struct drug {\r\n        string name;\r\n        uint256 strength;\r\n        uint256 totalQuantity;\r\n        uint256 numRefills;\r\n        uint256 dosage;\r\n        string notes;\r\n    }\r\n\r\n    function addDrug (string memory tempName, uint256 tempStrength, uint256 tempQuantity, uint256 tempRefills, uint256 tempDosage) public {\r\n        drugList.push(drug(tempName, tempStrength, tempQuantity, tempRefills, tempDosage, \"none\"));\r\n    }\r\n\r\n    function addNote (string memory name, string memory _newNotes) public {\r\n        for (uint i = 0; i<drugList.length; i++) {\r\n            if (strcmp(drugList[i].name, name)) {\r\n                drugList[i].notes = _newNotes;\r\n            }\r\n        }\r\n    }\r\n\r\n    function strcmp(string memory a, string memory b) internal pure returns (bool) {\r\n        bytes memory aBytes = bytes(a);\r\n        bytes memory bBytes = bytes(b);\r\n        if(aBytes.length != bBytes.length) {\r\n            return false;\r\n        }\r\n        else {\r\n            return keccak256(aBytes) == keccak256(bBytes);\r\n        }\r\n    }\r\n}",
  "sourcePath": "C:/Users/yolan/medicalPrescription/contracts/Prescription.sol",
  "compiler": {
    "name": "solc",
    "version": "0.5.16+commit.9c3226ce.Emscripten.clang"
  },
  "schemaVersion": "3.2.2",
  "updatedAt": "2020-07-19T21:57:47.066Z",
  "networkType": "ethereum",
  "devdoc": {
    "methods": {}
  },
  "userdoc": {
    "methods": {}
  }
}